{
  "contractName": "Tiny",
  "abi": [
    {
      "constant": true,
      "inputs": [
        {
          "name": "",
          "type": "address"
        }
      ],
      "name": "keyValues",
      "outputs": [
        {
          "name": "",
          "type": "bytes32"
        }
      ],
      "payable": false,
      "stateMutability": "view",
      "type": "function"
    },
    {
      "inputs": [],
      "payable": false,
      "stateMutability": "nonpayable",
      "type": "constructor"
    },
    {
      "constant": false,
      "inputs": [
        {
          "name": "key",
          "type": "address"
        },
        {
          "name": "val",
          "type": "bytes32"
        }
      ],
      "name": "addKv",
      "outputs": [],
      "payable": false,
      "stateMutability": "nonpayable",
      "type": "function"
    },
    {
      "constant": true,
      "inputs": [
        {
          "name": "key",
          "type": "address"
        }
      ],
      "name": "getKv",
      "outputs": [
        {
          "name": "",
          "type": "bytes32"
        }
      ],
      "payable": false,
      "stateMutability": "view",
      "type": "function"
    }
  ],
  "bytecode": "0x608060405234801561001057600080fd5b50610242806100206000396000f300608060405260043610610057576000357c0100000000000000000000000000000000000000000000000000000000900463ffffffff16806317982ed41461005c57806349fd95ff146100bb578063d20955aa1461010c575b600080fd5b34801561006857600080fd5b5061009d600480360381019080803573ffffffffffffffffffffffffffffffffffffffff16906020019092919050505061016b565b60405180826000191660001916815260200191505060405180910390f35b3480156100c757600080fd5b5061010a600480360381019080803573ffffffffffffffffffffffffffffffffffffffff1690602001909291908035600019169060200190929190505050610183565b005b34801561011857600080fd5b5061014d600480360381019080803573ffffffffffffffffffffffffffffffffffffffff1690602001909291905050506101ce565b60405180826000191660001916815260200191505060405180910390f35b60006020528060005260406000206000915090505481565b806000808473ffffffffffffffffffffffffffffffffffffffff1673ffffffffffffffffffffffffffffffffffffffff16815260200190815260200160002081600019169055505050565b60008060008373ffffffffffffffffffffffffffffffffffffffff1673ffffffffffffffffffffffffffffffffffffffff1681526020019081526020016000205490509190505600a165627a7a7230582073ac3cdbea3da7c6b2abeac9bf1efba6ce3b610689e2f01dcf17689b870f2e350029",
  "source": "pragma solidity ^0.4.0;\n\ncontract Tiny {\n\n    /*\n    Map of key to values\n    key - The key for looking up the list of addresses\n    values - The list of values, which correspond to the addresses\n    */\n    mapping (address => bytes32) public keyValues;\n\n    function Tiny(){\n\n    }\n\n    /*\n    Adds a kv pair to the mapping\n    */\n    function addKv(address key, bytes32 val) public {\n        keyValues[key] = val;\n    }\n\n    /*\n    Returns the value for this key\n    */\n    function getKv(address key) view public returns (bytes32) {\n        return keyValues[key];\n    }\n}\n",
  "sourcePath": "/Users/shankarganesh/WebstormProjects/eth-truffle/truffle/contracts/Tiny.sol",
  "compiler": {
    "name": "solc",
    "version": "0.4.24+commit.e67f0147.Emscripten.clang"
  },
  "schemaVersion": "2.0.1",
  "updatedAt": "2018-08-19T22:44:10.666Z"
}