{
  "contractName": "Tiny",
  "abi": [
    {
      "inputs": [],
      "payable": false,
      "stateMutability": "nonpayable",
      "type": "constructor"
    },
    {
      "constant": false,
      "inputs": [
        {
          "name": "val",
          "type": "string"
        }
      ],
      "name": "addKv",
      "outputs": [],
      "payable": true,
      "stateMutability": "payable",
      "type": "function"
    },
    {
      "constant": true,
      "inputs": [
        {
          "name": "lookupKey",
          "type": "address"
        }
      ],
      "name": "getKv",
      "outputs": [
        {
          "name": "",
          "type": "string"
        }
      ],
      "payable": false,
      "stateMutability": "view",
      "type": "function"
    },
    {
      "constant": false,
      "inputs": [],
      "name": "withdraw",
      "outputs": [],
      "payable": false,
      "stateMutability": "nonpayable",
      "type": "function"
    }
  ],
  "bytecode": "0x608060405234801561001057600080fd5b5033600260006101000a81548173ffffffffffffffffffffffffffffffffffffffff021916908373ffffffffffffffffffffffffffffffffffffffff1602179055506105e3806100616000396000f300608060405260043610610057576000357c0100000000000000000000000000000000000000000000000000000000900463ffffffff1680633ccfd60b1461005c578063b52f12f714610073578063d20955aa146100a1575b600080fd5b34801561006857600080fd5b5061007161015d565b005b61009f600480360381019080803590602001908201803590602001919091929391929390505050610354565b005b3480156100ad57600080fd5b506100e2600480360381019080803573ffffffffffffffffffffffffffffffffffffffff169060200190929190505050610432565b6040518080602001828103825283818151815260200191508051906020019080838360005b83811015610122578082015181840152602081019050610107565b50505050905090810190601f16801561014f5780820380516001836020036101000a031916815260200191505b509250505060405180910390f35b600260009054906101000a900473ffffffffffffffffffffffffffffffffffffffff1673ffffffffffffffffffffffffffffffffffffffff163373ffffffffffffffffffffffffffffffffffffffff16141515610222576040517f08c379a00000000000000000000000000000000000000000000000000000000081526004018080602001828103825260168152602001807f53656e646572206e6f7420617574686f72697a65642e0000000000000000000081525060200191505060405180910390fd5b600260009054906101000a900473ffffffffffffffffffffffffffffffffffffffff1673ffffffffffffffffffffffffffffffffffffffff163373ffffffffffffffffffffffffffffffffffffffff161415156102e7576040517f08c379a00000000000000000000000000000000000000000000000000000000081526004018080602001828103825260168152602001807f53656e646572206e6f7420617574686f72697a65642e0000000000000000000081525060200191505060405180910390fd5b600260009054906101000a900473ffffffffffffffffffffffffffffffffffffffff1673ffffffffffffffffffffffffffffffffffffffff166108fc6003549081150290604051600060405180830381858888f19350505050158015610351573d6000803e3d6000fd5b50565b600066038d7ea4c68000905080341015151561036c57fe5b33600160006101000a81548173ffffffffffffffffffffffffffffffffffffffff021916908373ffffffffffffffffffffffffffffffffffffffff1602179055508282600080600160009054906101000a900473ffffffffffffffffffffffffffffffffffffffff1673ffffffffffffffffffffffffffffffffffffffff1673ffffffffffffffffffffffffffffffffffffffff168152602001908152602001600020919061041c929190610512565b5034600360008282540192505081905550505050565b60606000808373ffffffffffffffffffffffffffffffffffffffff1673ffffffffffffffffffffffffffffffffffffffff1681526020019081526020016000208054600181600116156101000203166002900480601f0160208091040260200160405190810160405280929190818152602001828054600181600116156101000203166002900480156105065780601f106104db57610100808354040283529160200191610506565b820191906000526020600020905b8154815290600101906020018083116104e957829003601f168201915b50505050509050919050565b828054600181600116156101000203166002900490600052602060002090601f016020900481019282601f1061055357803560ff1916838001178555610581565b82800160010185558215610581579182015b82811115610580578235825591602001919060010190610565565b5b50905061058e9190610592565b5090565b6105b491905b808211156105b0576000816000905550600101610598565b5090565b905600a165627a7a72305820b6552cf2a0bf7ce9c61d054d8b8b5398a178b64e95df3a90267d798b6af23d7b0029",
  "source": "pragma solidity ^0.4.0;\n\ncontract Tiny {\n\n    /*\n    Map of key to values\n    key - The key for looking up the list of addresses\n    values - The list of values, which correspond to the addresses\n    */\n    mapping (address => string) keyValues;\n    address key;\n    address private owner_;\n    uint earning;\n\n    constructor() public {\n        owner_ = msg.sender;\n    }\n\n    modifier onlyBy()\n    {\n        require(\n            msg.sender == owner_,\n            \"Sender not authorized.\"\n        );\n        _;\n    }\n\n    /*\n    Adds a kv pair to the mapping\n    */\n    function addKv(string val) external payable {\n\n        uint fee = 1 finney;\n        assert(msg.value >= fee);\n\n        key = msg.sender;\n        keyValues[key] = val;\n\n        earning += msg.value;\n    }\n\n    /*\n    Returns the value for this key\n    */\n    function getKv(address lookupKey) view external returns (string) {\n        return keyValues[lookupKey];\n    }\n\n    /*\n    Restrict withdrawls\n    */\n    function withdraw() external onlyBy {\n        require(msg.sender == owner_, \"Sender not authorized.\");\n        owner_.transfer(earning);\n    }\n}\n",
  "sourcePath": "/Users/shankarganesh/GitHub/tiny-eth-contract/contracts/Tiny.sol",
  "compiler": {
    "name": "solc",
    "version": "0.4.24+commit.e67f0147.Emscripten.clang"
  },
  "schemaVersion": "2.0.1",
  "updatedAt": "2018-09-06T14:40:30.726Z"
}